:100000000C943C010C9459010C9459010C94590125
:100010000C9459010C94C8040C9459010C94590186
:100020000C9459010C9459010C9459010C945901E8
:100030000C9459010C9459010C9459010C945901D8
:100040000C9499100C9459010C9459010C94590179
:100050000C949E0F0C945C0F0C9459010C94590154
:100060000C9459010C9459010C9459010C945901A8
:100070000C9459010C9459010C94590125203130EC
:1000800064004C6576656C00507265737320612066
:10009000627574746F6E20746F2073746172742053
:1000A000616761696E0047414D45204F56455200DA
:1000B00020202020202020005061757365640020DE
:1000C0002020202020202020202020202020202030
:1000D000202000444F55424C452053504545442074
:1000E0004D4F44450043535345323031302F373262
:1000F00030312070726F6A656374206279205365B5
:100100006261737469616E204E61726C6F63682006
:100110002834343334353731342900537061636502
:1001200020496D70616374002520313064004C6992
:10013000766573002520313064004C6576656C006F
:10014000252031306400486967682053636F726509
:100150000025203130640053636F72650025203123
:10016000306400486967682053636F72650025201A
:100170003130640053636F726500E501E201DE0116
:10018000DA01D601D201CE01CA01C601C201540270
:1001900050024C024802440240023C02380235023E
:1001A00031022D022902240220021C02180213022D
:1001B0000F020B0206020202FD01F801F301EE013B
:1001C000E9016492927D6C92926D809EA0C17C92B6
:1001D000924DE4A2A29D182848FF4492926D468A4F
:1001E000926342FE037C92A27D868A92A2C3E010B3
:1001F0000E10E1C6281028C7FC021C02FDF80402FC
:1002000004F9FC0202FD8080FE80816492924DFE22
:100210009098677C828A7C03FE9090617C82827DCC
:10022000FE2010FFFE403040FFFE020203FE1028B9
:10023000C7040202FD82FE83FE1010FF7C82925DE5
:10024000FE909081FE929283FE82827D7C82824526
:10025000FE92926D7E90907F1B5B3F32356C001B4F
:100260005B25646D001B5B324A001B5B306D001B1D
:100270005B25643B2564480011241FBECFEFD8E006
:10028000DEBFCDBF11E0A0E0B1E0E8E2FCE202C0D9
:1002900005900D92A83BB107D9F723E0A8EBB1E098
:1002A00001C01D92A134B207E1F70E94920B0C9499
:1002B00012160C9400001F93CF93DF93E82FF0E009
:1002C000E354FE4FD081CD2FC295CF70DF7040E058
:1002D0006D2F8C2F0E94DB0611E01D0F40E0612F77
:1002E0008C2F0E94DB06CF5F40E06D2F8C2F0E9489
:1002F000DB0640E0612F8C2F0E94DB06DF91CF915F
:100300001F910895CF93C82F0E945B012091C201D5
:100310002150C217A1F08C2F90E0422F50E0FA013B
:10032000E354FE4F3081FC01E354FE4F3083FA0169
:10033000E854FE4F3081FC01E854FE4F3083E22F39
:10034000F0E0E354FE4F8FEF80832093C201CF9102
:1003500008951F93CF93DF93E82FF0E0E354FE4F0F
:10036000D081CD2FC295CF70DF704FE06D2F8C2FD5
:100370000E94DB0611E01D0F4FE0612F8C2F0E94C1
:10038000DB06CF5F4FE06D2F8C2F0E94DB064FE026
:10039000612F8C2F0E94DB06DF91CF911F91089572
:1003A0001092C2010895FF920F931F93CF93DF9392
:1003B0009091C20191111EC08FEF25C041E06C2FBA
:1003C000F80180810E94BC068F1102C08D2F1BC0D6
:1003D000CF5FC23049F040E06C2FF80180810E946D
:1003E000BC068F11EBCFF2CFDF5F8091C201D8172F
:1003F00018F008C0F82ED0E0C0E00D2F10E0035434
:100400001E4FE9CF8FEFDF91CF911F910F91FF909A
:1004100008950E94D30191E08F3F09F490E0892F65
:100420000895EF92FF920F931F93CF93DF9300D025
:100430001F92CDB7DEB70091C201053009F456C056
:100440001A828A818F708983182F106D8A818F5F3D
:100450008A83812F0E942906811142C08981806E82
:100460008B830E94290681113BC08A818F7089830A
:10047000806DE82E0E942906811132C08981806E2C
:10048000F82E0E94290681112BC0812F0E9409029B
:10049000811126C08B810E940902811121C08E2DFD
:1004A0000E94090281111CC08F2D0E940902811136
:1004B00017C0802F90E0FC01E354FE4F1083FC0135
:1004C000E854FE4F2AE020838091C2018F5F809321
:1004D000C201802F0E94A9010E946207802F07C0DD
:1004E0008A81873009F0ADCF8FEF01C08FEF0F9079
:1004F0000F900F90DF91CF911F910F91FF90EF9090
:100500000895CF93DF93D82FC62F862F0E949E0C7D
:10051000ED2FF0E0E854FE4F808181508083181663
:100520008CF08D2F0E9482010E94901060FD05C00A
:100530008AE090E00E94250D0DC085E090E00E94C9
:10054000250D08C06C2F6F7043E18C2F82958F7042
:100550000E94DB06DF91CF910895DF92EF92FF9228
:100560000F931F93CF93DF93D82FC62F0E945B0169
:100570000D2F10E0F801E354FE4FC0838D2F0E9431
:10058000A90141E060E08C2F0E94BC06F82E0E9479
:10059000D506D82E8C2F0E94D506E82E8C2F0E94CF
:1005A000330C882321F06C2F8D2F0E948102F801DB
:1005B000E354FE4F8081C81327C08F2D0E94330C57
:1005C000882321F06F2D8D2F0E948102F801E354C2
:1005D000FE4F8081C81318C08D2D0E94330C8823D4
:1005E00021F06D2D8D2F0E948102F801E354FE4F02
:1005F0008081C81309C08E2D0E94330C882321F0FE
:100600006E2D8D2F0E9481020E946207DF91CF9193
:100610001F910F91FF90EF90DF900895EF92FF925E
:100620000F931F93CF93DF93F82EE82FF0E0E3545E
:10063000FE4F8081C82FC295CF7029F48F2D0E9464
:10064000820101E02DC0182F1F70C15080E1C89FAA
:10065000E0011124EC2EE12A8E2D0E942906082F9C
:1006600081111BC081E0810F8F70C82B8C2F0E94DD
:100670002906D82F811114C08E2D0E940902082F3F
:1006800081110DC08C2F0E940902811109C06E2DAD
:100690008F2D0E94AD0201E003C000E001C00D2FCC
:1006A000802FDF91CF911F910F91FF90EF900895D0
:1006B0003F924F925F926F927F928F929F92AF92F2
:1006C000BF92CF92DF92EF92FF920F931F93CF933F
:1006D000DF938091C201882309F4D2C00E94B41232
:1006E0006091C20170E00E94FF11782E482E0F2EFB
:1006F000F3E0CF2ED12CF02D0F2EFBEA9F2EF02D04
:10070000812C0E94B412B6010E94FF11C82F9927B4
:100710008C010D5F1F4F801791070CF0A6C0842D30
:1007200090E09C0123543E4F7901C99D912D1124E5
:100730009695892F880F980F8C2F891B813049F04F
:1007400020F0823009F446C07FC0842D0E940E0341
:100750007CC0F7018081D82FDF70D63009F477C0D4
:1007600082958F70A82EB12CC50182959295907FAD
:100770009827807F9827382E92E09D0F9F70592EE2
:10078000692E682A862D0E942906811160C0FFEF1C
:10079000AF1ABF0AAA0CBB1CAA0CBB1CAA0CBB1C20
:1007A000AA0CBB1CA5288A2D0E94290681114FC0C6
:1007B000862D0E94090281114AC08A2D0E940902D9
:1007C000811145C061E06D0F6F706329842D0E9417
:1007D000AD0245C0F7019081892F8F70C1F19295CC
:1007E0009F70A92EB12C8150D82FDF70C501829542
:1007F0009295907F9827807F98275D2E582A852D87
:100800000E942906811123C0FFEFAF1ABF0AAA0C6C
:10081000BB1CAA0CBB1CAA0CBB1CAA0CBB1CAD2A83
:100820008A2D0E942906811112C0852D0E9409027D
:1008300081110DC08A2D0E940902811108C0652D09
:10084000842D0E94AD020BC0882D811108C0CF5F9E
:100850008C2F90E0801791070CF467CF06C02FEF24
:10086000421671F00E9462070BC0842D90E0019641
:100870006091C20170E00E94FF11482E781241CFB2
:10088000DF91CF911F910F91FF90EF90DF90CF906C
:10089000BF90AF909F908F907F906F905F904F90A0
:1008A0003F9008950F931F93CF93DF938091C201E0
:1008B000882371F110E0E12FF0E0E354FE4FC08196
:1008C0000C2F0F70C295CF70D0E02296C295D295B2
:1008D000D07FDC27C07FDC278C2F802B0E9429064D
:1008E000811108C081E0800F8F708C2B0E94290637
:1008F000882349F0812F0E940E03811104C0812FAB
:100900000E94820111501F5F8091C201181798F256
:10091000DF91CF911F910F910895E8E6F0E080817B
:1009200082608083D99AECE6F0E080818F608083DA
:100930001092C30108958091C30118163CF580916F
:10094000C4016FB7F8949091C3019230B4F021E0E4
:1009500030E091E0F901EC53FE4F4081F901ED5395
:10096000FE4F40839F5F292F30E04091C301042E4A
:10097000000C550B241735076CF39091C30191506F
:100980009093C30166231CF4789408958FEF089523
:100990001F920F920FB60F9211242F933F934F93F4
:1009A0005F936F937F938F939F93EF93FF9343B1E5
:1009B0004F7080E090E0642F70E02091C3012430FC
:1009C00004F59B01082E02C0359527950A94E2F79D
:1009D00020FF17C02091C80130E0082E02C03595D5
:1009E00027950A94E2F720FD0CC0E091C30121E0B5
:1009F0002E0F2093C3010E2E000CFF0BEC53FE4F65
:100A00008083019684309105C1F64093C801FF911F
:100A1000EF919F918F917F916F915F914F913F9156
:100A20002F910F900FBE0F901F9018958091060187
:100A3000089566E070E086E090E00E941F1082E872
:100A400090E09F938F930E94021367E070E080E034
:100A500090E00E941F10809106011F928F938CE7F7
:100A600090E09F938F930E9402130F900F900F902E
:100A70000F900F900F900895809106018F5F8093E3
:100A800006010E941F0608950E941E0760EF86E877
:100A900091E00E94D20D18C02FE78CE293E0215024
:100AA00080409040E1F700C000000E949B048F3F0F
:100AB00021F40E94500F882339F00E94570F0E94A2
:100AC000DA050E94570708950E94E10D8111E4CFD5
:100AD000DDCF4F925F926F927F928F929F92AF92F3
:100AE000BF92CF92DF92EF92FF920E943A0D4B019C
:100AF0005C010E943A0D653671058105910578F11A
:100B00000E943A0D6B017C010F2EF4E64F2E512C02
:100B1000612C712CF02DC501B401A30192010E943A
:100B20001312A7019601261B370B480B590BCA015C
:100B3000B901A30192010E941312672B682B692B44
:100B400071F48091060190E020910401309105013B
:100B50008217930721F40E943C050E944405FF90F0
:100B6000EF90DF90CF90BF90AF909F908F907F904D
:100B70006F905F904F9008958091070180FF0DC0A6
:100B800080E2E8E2F1E0A8E4B1E001900D928A95FC
:100B9000E1F780EF80931E02089580E2E8E0F1E043
:100BA000A8E4B1E001900D928A95E1F785E3809386
:100BB0001E0208951F93CF93DF93CDB7DEB728971A
:100BC0000FB6F894DEBF0FBECDBF1092C9010E94D0
:100BD0001E0710E0E091C901E10FEF71F0E0E85B62
:100BE000FE4F408160911E02FE01319680E090E050
:100BF00050E09A01082E02C0359527950A94E2F735
:100C000020FF02C0608301C01082019631968830B7
:100C1000910579F7BE016F5F7F4F812F0E94FA0621
:100C20001F5F1031B9F60E94BC0528960FB6F894E4
:100C3000DEBF0FBECDBFDF91CF911F910895809190
:100C400007018F5F80930701089581E0809307017A
:100C50000895E82FE295EF709091C901E90FEF71C7
:100C6000F0E0E85BFE4F208130E08F70A90102C008
:100C7000559547958A95E2F7CA01817008959F922C
:100C8000AF92BF92CF92DF92EF92FF920F931F939A
:100C9000CF93DF930E9452048091C9018F5F80320D
:100CA00009F059C01092C90158C0EC2C8091C901BB
:100CB0008C0DEFEFE80F12F4EFE1E80FEF791CF481
:100CC000E150E06EEF5F0E2E000CFF0BE85BFE4F75
:100CD00000818F71E82FF0E0E85BFE4FA0809C2C34
:100CE000990C990C990C990CC0E0D0E00A2510E001
:100CF000B12CC8010C2E02C0959587950A94E2F795
:100D000080FF1AC0C5010C2E02C0959587950A94E4
:100D1000E2F780FF0CC08C2F8F7089290E949E0CF7
:100D200040911E026C2F8E2D0E94DB0605C040E014
:100D30006C2F8E2D0E94DB062196C830D105C9F696
:100D40008FEFC81AD80A20E1C216D10409F0ADCF3E
:100D50000E94620705C08093C901C12CD12CA5CF88
:100D6000DF91CF911F910F91FF90EF90DF90CF9087
:100D7000BF90AF909F90089583FD11C0282F2295BA
:100D80002F70620F603168F48F70840F883058F4D0
:100D900090E16902900111248F70822B08958FEFEA
:100DA00008958FEF08958FEF0895805F089580E88C
:100DB0000E94F10F08951F93CF93DF938031B0F419
:100DC0006830A0F4142FC62FD82F81E00E9419108C
:100DD0006C2F677080E1689F900111248D2F8F70B8
:100DE000822B0E941910812F0E941910DF91CF9140
:100DF0001F9108950F931F93CF93DF93803190F449
:100E00008B01C82F83E00E9419108C2F8F700E94D5
:100E10001910E801085F1F4F89910E941910C0172F
:100E2000D107D1F7DF91CF911F910F91089584E001
:100E30000E94191082E00E94191008958FE00E940C
:100E4000191008951F93CF93DF938091CA018823CF
:100E500011F015E301C01FEDC091CB01DC2FD2953D
:100E6000DF70CF70412F6C2F8D2F0E94DB06412F3A
:100E70006C2F81E08D0F0E94DB06DF91CF911F91D7
:100E80000895CF93DF93C091CB01DC2FD295DF7013
:100E9000CF7040E06C2F8D2F0E94DB0640E06C2F5E
:100EA00081E08D0F0E94DB06DF91CF91089584E0F1
:100EB0008093CB011092CA010E942207089580916D
:100EC000CB010895CF938091CB010E94D506C82F06
:100ED0008091CB010E942906811110C08C2F0E94A5
:100EE000290681110BC08091CB010E94090281115A
:100EF00005C08C2F0E940902882329F081E080938D
:100F0000CA010E942207CF9108958091CB018F7072
:100F10008730B9F00E9441079091CB01892F807FE3
:100F20009F5F9F70892B8093CB010E949E0C8091C4
:100F3000CB010E94D5060E949E0C0E9462070E946F
:100F4000220708958091CB018F70B9F00E9441076C
:100F50009091CB01892F807F91509F70892B809336
:100F6000CB010E949E0C8091CB010E94D5060E946D
:100F70009E0C0E9462070E94220708958091CB0177
:100F800082958F7009F10E9441078091CB01982FC3
:100F900092959F70292F30E021503109229532958A
:100FA000307F3227207F32278F70822B8093CB01B6
:100FB0000E949E0C8091CB010E94D5060E949E0C3F
:100FC0000E9462070E94220708958091CB018295BA
:100FD0008F708E3009F10E9441078091CB01982FCC
:100FE00092959F70292F30E02F5F3F4F22953295C9
:100FF000307F3227207F32278F70822B8093CB0166
:101000000E949E0C8091CB010E94D5060E949E0CEE
:101010000E9462070E94220708958091CA010895E4
:101020008AB18FEF8AB98BB18C638BB908950E9416
:10103000D7060E948D0440E060E076E980E090E011
:101040000E94090F0E9458100E94100878948FEF98
:1010500087B980E480937C0086E880937A000895C5
:1010600080916801843069F49BB189278BB92FEF97
:1010700083ED90E3215080409040E1F700C00000F4
:101080000895833071F49BB180E289278BB92FEFEB
:1010900083ED90E3215080409040E1F700C00000D4
:1010A0000895823071F49BB188E089278BB92FEFC6
:1010B00083ED90E3215080409040E1F700C00000B4
:1010C0000895813021F49BB180E189278BB908957F
:1010D00068E070E086E090E00E941F108EE291E0F0
:1010E0009F938F930E94021369E070E080E090E08C
:1010F0000E941F10809168011F928F9388E291E0F7
:101100009F938F930E9402130F900F900F900F9058
:101110000F900F9008958091CE01811106C0ECE7E9
:10112000F0E080818E7F808305C0ECE7F0E0808175
:1011300081608083EAE7F0E0808180648083808141
:1011400086FDFDCF80917800909179009093CD013C
:101150008093CC012091CE0121110DC08D3B22E066
:10116000920718F00E94BE0714C08C32914088F498
:101170000E94E5070EC0213061F48D3B22E092070A
:1011800018F00E94850705C08C32914010F40E942F
:10119000A2079091CE0181E089278093CE01089526
:1011A00080E00E9442100E9439100E944F1063E0BC
:1011B00070E083E090E00E941F108BE191E09F932C
:1011C0008F930E94021365E070E083E090E00E943C
:1011D0001F1080E20E94421085EE90E09F938F9353
:1011E0000E94021385E20E9442100E941E070F9087
:1011F0000F900F900F906CE38FE891E00E94D20D5A
:1012000014C02FE78CE293E0215080409040E1F73A
:1012100000C000000E949B048F3F21F40E94500FE9
:10122000882319F00E94570F08950E94E10D811143
:10123000E8CFE1CF0E94DA050E94D0010E94C50BE1
:101240000E9457070E94391080916801843011F480
:101250000E94B70C0E94610D0E9419050E94680847
:101260000E949B040E94570F2FEF84E39CE02150C3
:1012700080409040E1F700C0000008952F923F9217
:101280004F925F926F927F928F929F92AF92BF9296
:10129000CF92DF92EF92FF920F931F93CF93DF9342
:1012A000CDB7DEB729970FB6F894DEBF0FBECDBF1E
:1012B0000E946E104B015C012B013C016D837E830B
:1012C0008F83988769837A838B839C831986212CEB
:1012D00033243A949EC10E949B04082F8F3F11F53E
:1012E0000E94500F882301F1EBE3F3E080819181AC
:1012F0000E94C412182FF985F11106C08B31B9F480
:1013000021E02987132D13C08985813031F41B35E5
:1013100069F492E09987132D0AC0E985E23009F457
:1013200085C17FC1132D03C0132D01C02986809173
:10133000CF01811192C1033011F403C0298610320C
:1013400089F40E944F0C56C0143429F40E94BE0741
:101350002986132D4FC0133439F40E94E5072986DE
:10136000132D48C0832D03C0812F2986132D002300
:1013700011F0823419F40E94A2073CC0013011F030
:10138000813419F40E94850735C0023061F50E944E
:101390007C100E94901060FD0FC06DE070E08AE04C
:1013A00090E00E941F1083ED90E09F938F930E9426
:1013B00002130F900F901EC00E94901060FF1AC081
:1013C0006DE070E08AE090E00E941F108FEB90E0EB
:1013D0009F938F930E9402138BB1F0E48F278BB9F8
:1013E0000F900F9007C0812F8F7D8E3409F02EC192
:1013F0000E941A09103711F01035D1F58091CF01F4
:1014000091E08111922D9093CF0181111DC080E256
:101410000E94421081E00E94421060E170E08AE088
:1014200090E00E941F1088EB90E09F938F930E94A2
:1014300002130E94301061E170E08AE090E00E94A7
:101440001F100F900F9014C060E170E08AE090E0F0
:101450000E941F1080EB90E09F938F930E940213D5
:1014600061E170E08AE090E00E941F100F900F9001
:101470008091CF01882329F01F7D1E3411F40E9432
:101480001A090E946E106B017C010E940D088111E7
:101490005FC08091CF0181115BC00E94901060FFFE
:1014A00057C0D501C40186579D4FAF4FBF4FC816D7
:1014B000D906EA06FB0620F00E943F0646015701C6
:1014C000D501C40188539F4FAF4FBF4F8C159D0569
:1014D000AE05BF0520F40E948B08460157018981A3
:1014E0009A81AB81BC8188519C4FAF4FBF4F8C1507
:1014F0009D05AE05BF0530F40E941102C982DA8253
:10150000EB82FC828D819E81AF81B88580579E4F92
:10151000AF4FBF4F8C159D05AE05BF0540F40E942F
:1015200058030E943F06CD82DE82EF82F886D30107
:10153000C201845D9E4FAF4FBF4F8C159D05AE0518
:10154000BF0508F066C00E94C80B2601370161C0C4
:101550000E940D0881115DC08091CF01811159C099
:101560000E94901060FD55C0D501C401845D9E4F5E
:10157000AF4FBF4F8C159D05AE05BF0520F40E94EF
:101580003F0646015701D501C40188539F4FAF4F15
:10159000BF4FC816D906EA06FB0620F00E948B084A
:1015A0004601570189819A81AB81BC8188519C4F4A
:1015B000AF4FBF4F8C159D05AE05BF0530F40E949F
:1015C0001102C982DA82EB82FC828D819E81AF8119
:1015D000B88588539F4FAF4FBF4F8C159D05AE0503
:1015E000BF0540F40E9458030E943F06CD82DE8270
:1015F000EF82F886D301C2018A569F4FAF4FBF4F8B
:101600008C159D05AE05BF0520F40E94C80B260170
:1016100037010E940D08882309F45DCE0E9430082E
:1016200038C08091CF01811124C088CE8091CF0134
:10163000882309F489CE2986132DDECE81E090918E
:10164000CF019111822D8093CF01E1CE103709F0A7
:10165000D3CEF4CF2092CF01F7CE1037B1F4FACF2A
:1016600081E09091CF019111822D8093CF01298645
:10167000EBCE1037A9F32986BFCE81E09091CF0140
:101680009111822D8093CF01DFCE103509F0F0CE7D
:10169000F4CF29960FB6F894DEBF0FBECDBFDF9111
:1016A000CF911F910F91FF90EF90DF90CF90BF905F
:1016B000AF909F908F907F906F905F904F903F90F2
:1016C0002F90089580916801813041F50E94250690
:1016D0006EE070E08AE090E00E941F1086EA90E0E1
:1016E0009F938F930E9402136FE070E08AE090E076
:1016F0000E941F1088E890E09F938F930E9402132E
:101700000F900F900F900F900E949B048F3FE1F37A
:1017100084E0809368010E941008089581508093AE
:10172000680108950E9417080E94D0080E941A09B3
:101730000E943E090E94620B0E94610D0E9468088F
:10174000F5CF1F93CF93DF93182FC82FD0E0FE0162
:10175000E053FE4F8081682F6F7040E082958F705C
:101760000E94DB06809110028150181741F0E82F8B
:10177000F0E0E053FE4F9081C053DE4F988380939A
:101780001002DF91CF911F910895109210020895D9
:10179000EF92FF920F931F93CF93DF93C0E057C058
:1017A000EC2EF12C870100531E4FF80180810E941E
:1017B000D506D82FF801808182958F708F3021F463
:1017C0008C2F0E94A10B43C08D2F0E9429068823D5
:1017D00021F08C2F0E94A10B3AC08D2F0E94D301C3
:1017E0008F3FB1F06D2F0E9481020E94901060FD2A
:1017F00005C082E090E00E94100D04C081E090E0FE
:101800000E94100D0E94610D8C2F0E94A10B1FC021
:101810000E945F07D81304C08C2F0E94A10B17C031
:10182000870100531E4FF8018081682F6F7040E0E0
:1018300082958F700E94DB06F801D0836D2F6F7048
:101840004CE38D2F82958F700E94DB06CF5F8091D5
:101850001002C81708F4A4CFDF91CF911F910F9108
:10186000FF90EF900895209110022223B1F0909103
:10187000D001891779F0E1EDF1E0215030E02F52ED
:101880003E4F03C09191981739F0E217F307D1F753
:1018900020E003C021E001C021E0822F0895CF9312
:1018A000DF930E945F07C82FC295CF70CE3009F436
:1018B00042C00E945F0740E062E00E94BC06D82F51
:1018C0000E942906811137C08D2F0E94330C81118F
:1018D00032C0CD3038F48D2F0E94D5060E94330CD3
:1018E000811129C08D2F0E94D3018F3F91F06D2F60
:1018F0000E9481020E94901060FD05C082E090E08D
:101900000E94100D04C081E090E00E94100D0E9422
:10191000610DE091100281E08E0F80931002F0E0E3
:10192000E053FE4FD0836D2F6F704CE38D2F829567
:101930008F700E94DB06DF91CF91089530911002E5
:101940003323A1F09091D00189130AC004C02191E2
:10195000281309C001C090E0892F0E94A10B0895AF
:10196000E1EDF1E090E09F5F9313F1CF08951092C5
:10197000230210922402109225021092260262E0A5
:1019800070E086E090E00E941F1084E791E09F9352
:101990008F930E94021363E070E080E090E00E9469
:1019A0001F10809126028F93809125028F93809142
:1019B00024028F93809123028F938EE691E09F9370
:1019C0008F930E94021364E070E081E090E00E9437
:1019D0001F1083E691E09F938F930E94021365E0AE
:1019E00070E080E090E00E941F10809122028F93AF
:1019F000809121028F93809120028F9380911F020A
:101A00008F938DE591E09F938F930E9402138DB782
:101A10009EB740960FB6F8949EBF0FBE8DBF089537
:101A20004091230250912402609125027091260278
:101A3000480F591F611D711D4093230250932402CA
:101A400060932502709326020895409123025091DD
:101A500024026091250270912602480F591F611DD2
:101A6000711D4093230250932402609325027093CA
:101A7000260208956091230270912402809125022C
:101A80009091260208958091230290912402A091C2
:101A90002502B091260240911F02509120026091D0
:101AA000210270912202481759076A077B0740F408
:101AB00080931F0290932002A0932102B0932202F0
:101AC000089562E070E086E090E00E941F1087E5D4
:101AD00091E09F938F930E94021363E070E080E097
:101AE00090E00E941F10809126028F938091250222
:101AF0008F93809124028F93809123028F9381E5AD
:101B000091E09F938F930E9402130E94430D64E023
:101B100070E081E090E00E941F1086E491E09F93C6
:101B20008F930E94021365E070E080E090E00E94D5
:101B30001F10809122028F93809121028F938091B8
:101B400020028F9380911F028F9380E491E09F93F6
:101B50008F930E9402130E94690566E070E086E0A0
:101B600090E00E941F108AE391E09F938F930E9460
:101B7000021367E070E080E090E00E941F100E9476
:101B800016051F928F9384E391E09F938F930E9499
:101B900002138DB79EB746960FB6F8949EBF0FBE40
:101BA0008DBF08956093690190931502809314028C
:101BB0001092170210921602109213021092120243
:101BC00008950F931F93CF93DF93CDB7DEB7289778
:101BD0000FB6F894DEBF0FBECDBFE0911602F091B4
:101BE0001702309781F0149110FF06C0109217026F
:101BF0001092160200E06BC03196F0931702E0934A
:101C0000160200E064C0E0911202F09113023097D6
:101C100009F449C0CF0101969093130280931202F8
:101C2000E081E1110AC0109213021092120280E1C9
:101C30008093110200E010E04AC08FE98E0F8A31D4
:101C400070F4F0E0EE0FFF1FE453FF4F8591949185
:101C5000909317028093160200E010E038C08FEBDB
:101C60008E0F8A3170F4F0E0EE0FFF1FE45FFE4F3D
:101C700085919491909317028093160200E010E0F2
:101C800026C080ED8E0F8A3000F5F0E0EE0FFF1FCA
:101C9000E65EFE4F85919491909317028093160211
:101CA00000E010E014C0809114029091150201E050
:101CB000009709F000E090931302809312021092B3
:101CC00015021092140210E002C000E010E00E9421
:101CD000170720916901FE013896CE010196112364
:101CE00014F4208301C01082110F3197E817F9070F
:101CF000B1F71982BE016F5F7F4F8FE00E94FA0635
:101D000080911102882389F0815080931102002371
:101D100011F0882311F090E003C091E001C091E040
:101D200081E0992329F080E003C00023A1F3F7CFDD
:101D300028960FB6F894DEBF0FBECDBFDF91CF91CE
:101D40001F910F910895CF93C82F8A3019F48DE019
:101D50000E94A30E9FB7907802C0992329F1809129
:101D600028028F3FD1F3F894E091270281E08E0F93
:101D700080932702F0E0E75DFD4FC0838091280249
:101D80008F5F80932802809127028F3F11F4109279
:101D90002702E1ECF0E0808180628083992339F0B2
:101DA000789480E090E005C081E090E002C080E09F
:101DB00090E0CF91089580913A038823E1F32FB703
:101DC0002078F8948091280330913A0390E0831BA7
:101DD00091095AF4E091280380913A03F0E0E81B5E
:101DE000F109E75CFC4F80810AC0E09128038091F3
:101DF0003A03F0E0E81BF109E75DFC4F8081909128
:101E00003A03915090933A03222309F0789490E09A
:101E1000089510922702109228021092280310921F
:101E20003A031092390340931802DC01CB01880F6A
:101E3000991FAA1FBB1F880F991FAA1FBB1F9C01B8
:101E4000AD01220F331F441F551F60E072E18AE786
:101E500090E00E943512BA01A9014F5F5F4F6F4FAA
:101E60007F4FDB01CA011AF40196A11DB11DB59582
:101E7000A7959795879501979093C5008093C40087
:101E8000E1ECF0E088E18083808180688083EBE38F
:101E9000F3E08AE691E093838283918380830895BF
:101EA00090913A0381E0911101C080E00895109271
:101EB000280310923A0308951F920F920FB60F92C3
:101EC00011242F938F939F93EF93FF938091280278
:101ED000882329F1809127022091280290E0821B1B
:101EE00091095AF4E091270280912802F0E0E81B62
:101EF000F109E85DFC4F90810AC0E09127028091D2
:101F00002802F0E0E81BF109E75DFD4F9081809128
:101F100028028150809328029093C60005C0E1EC0E
:101F2000F0E080818F7D8083FF91EF919F918F9171
:101F30002F910F900FBE0F901F9018951F920F9228
:101F40000FB60F9211242F933F934F935F936F938C
:101F50007F938F939F93AF93BF93CF93EF93FF9311
:101F6000C091C60080911802882349F08091280210
:101F70008F3F29F060E070E08C2F0E94A30E8091CB
:101F80003A03803120F081E08093390318C0CD30CE
:101F900009F4CAE0E091280381E08E0F80932803C2
:101FA000F0E0E75DFC4FC08380913A038F5F809340
:101FB0003A0380912803803111F410922803FF9195
:101FC000EF91CF91BF91AF919F918F917F916F9141
:101FD0005F914F913F912F910F900FBE0F901F90E7
:101FE000189594B1906B94B92C9A90E59CBD88306B
:101FF00021F0803211F0823019F491E09DBD01C0D2
:102000001DBC803269F028F4883071F0803161F0B5
:102010000EC0803429F0803851F48CB581608CBDBD
:102020008CB582608CBD03C08CB581608CBD2C9852
:1020300008958EBD0DB407FEFDCF8EB508959F9314
:102040008F937F936F938FE692E09F938F930E947D
:1020500002130F900F900F900F900F900F90089514
:102060008AE692E09F938F930E9402130F900F9045
:10207000089585E692E09F938F930E9402130F903C
:102080000F9008951F928F938FE592E09F938F9307
:102090000E9402130F900F900F900F90089588E503
:1020A00092E09F938F930E9402130F900F900895D8
:1020B00010921A0210921B0210921C0210921D0222
:1020C00016BC8CE787BD82E084BD83E085BDEEE66B
:1020D000F0E0808182608083A99A08952FB7F894F8
:1020E00060911A0270911B0280911C0290911D0256
:1020F00022230CF4789408958091820190918301B9
:10210000A0918401B09185010196A11DB11D80931C
:10211000820190938301A0938401B0938501089577
:102120006091820170918301809184019091850179
:1021300008951F920F920FB60F9211242F933F9381
:102140004F935F936F937F938F939F93AF93BF93BF
:10215000EF93FF9380911A0290911B02A0911C02B1
:10216000B0911D020196A11DB11D80931A0290939A
:102170001B02A0931C02B0931D029091190281E0F2
:102180008927809319028091820180FD05C080918A
:102190001902811101C05E9A0E943A0D64367105E0
:1021A0008105910524F063E670E080E090E02091E5
:1021B000190221110CC02AE030E040E050E00E94FA
:1021C0003512FB01E858FE4F808188B91AC06A3089
:1021D000710581059105ACF02AE030E040E050E067
:1021E0000E943512CA01B9010E9443110E947E115A
:1021F0000E941211E62FF0E0E858FE4F80818068BF
:1022000088B9FF91EF91BF91AF919F918F917F918D
:102210006F915F914F913F912F910F900FBE0F9053
:102220001F9018950E94C61188F09F5798F0B92FFB
:102230009927B751B0F0E1F0660F771F881F991FFB
:102240001AF0BA95C9F714C0B13091F00E94F81194
:10225000B1E008950C94F811672F782F8827B85FA4
:1022600039F0B93FCCF3869577956795B395D9F753
:102270003EF490958095709561957F4F8F4F9F4F5D
:102280000895E89409C097FB3EF490958095709569
:1022900061957F4F8F4F9F4F9923A9F0F92F96E9B2
:1022A000BB279395F695879577956795B795F11127
:1022B000F8CFFAF4BB0F11F460FF1BC06F5F7F4FC4
:1022C0008F4F9F4F16C0882311F096E911C07723D6
:1022D00021F09EE8872F762F05C0662371F096E8DF
:1022E000862F70E060E02AF09A95660F771F881FAE
:1022F000DAF7880F9695879597F908950E94E0116F
:1023000090F09F3748F4911116F00C94F91160E0A9
:1023100070E080E89FEB089526F41B16611D711D87
:10232000811D0C9495110C94B011882371F47723BE
:1023300021F09850872B762F07C0662311F4992738
:102340000DC09051862B70E060E02AF09A95660FE0
:10235000771F881FDAF7880F9695879597F9089564
:102360009F3F31F0915020F4879577956795B79509
:10237000880F911D9695879597F9089557FD905868
:10238000440F551F59F05F3F71F04795880F97FB39
:10239000991F61F09F3F79F08795089512161306F3
:1023A0001406551FF2CF4695F1DF08C01616170622
:1023B0001806991FF1CF8695710561050894089557
:1023C0000E94C611A0F0BEE7B91788F4BB279F385A
:1023D00060F41616B11D672F782F8827985FF7CF06
:1023E000869577956795B11D93959639C8F30895AD
:1023F000E894BB2766277727CB0197F9089597FBC9
:10240000072E16F4009407D077FD09D00E945412CD
:1024100007FC05D03EF4909581959F4F08957095E7
:1024200061957F4F0895A1E21A2EAA1BBB1BFD01E7
:102430000DC0AA1FBB1FEE1FFF1FA217B307E407A3
:10244000F50720F0A21BB30BE40BF50B661F771FFB
:10245000881F991F1A9469F76095709580959095DB
:102460009B01AC01BD01CF010895052E97FB1EF421
:1024700000940E944C1257FD07D00E94131207FCD3
:1024800003D04EF40C944C12509540953095219504
:102490003F4F4F4F5F4F0895909580957095619590
:1024A0007F4F8F4F9F4F0895AA1BBB1B51E107C061
:1024B000AA1FBB1FA617B70710F0A61BB70B881FD4
:1024C000991F5A95A9F780959095BC01CD01089563
:1024D0008F929F92AF92BF92CF92DF92EF92FF9234
:1024E000CF93DF93EC01688179818A819B816115AB
:1024F00071058105910521F464E279ED8BE597E0A2
:102500002DE133EF41E050E00E94351249015A01BC
:102510009B01AC01A7EAB1E40E94B9156B017C01F3
:10252000ACEEB4EFA50194010E94C715DC01CB010C
:102530008C0D9D1DAE1DBF1DB7FF03C00197A109E6
:10254000B04888839983AA83BB839F77DF91CF911B
:10255000FF90EF90DF90CF90BF90AF909F908F90C3
:1025600008950E946812089580E091E00E94681228
:102570000895A0E0B0E08093000190930101A09342
:102580000201B09303010895CF93DF93EC012B81F7
:1025900020FF33C026FF0AC02F7B2B838E819F81B3
:1025A00001969F838E838A8190E029C022FF0FC00D
:1025B000E881F9818081082E000C990B009719F4AD
:1025C00020622B831AC03196F983E8830EC0EA8516
:1025D000FB85099597FF09C02B81019611F080E2D8
:1025E00001C080E1822B8B8308C02E813F812F5F49
:1025F0003F4F3F832E83992702C08FEF9FEFDF91DC
:10260000CF910895A0E0B0E0E8E0F3E10C94DA1592
:10261000AE01495F5F4FDA016D917D91AD010BE332
:1026200013E0F80182819381DC0113962C911397BA
:10263000286013962C930E942813D8011296ED91CE
:10264000FC9113972381277F2383E4E00C94F615F4
:10265000ABE0B0E0EEE2F3E10C94CC156C017B0151
:102660008A01FC0117821682838181FFCCC1CE01D1
:1026700001963C01F6019381F70193FD859193FF4B
:1026800081917F01882309F4BAC1853239F493FD21
:10269000859193FF81917F01853229F4B60190E005
:1026A0000E941F15E7CF912C212C312CFFE1F3154F
:1026B000D8F08B3279F038F4803279F08332A1F49B
:1026C000232D20611DC08D3261F0803369F4232DEC
:1026D000216016C0832D8260382EE32DE4603E2EEB
:1026E0002AC0F32DF8601DC037FC2DC020ED280F47
:1026F0002A3040F08E32B9F436FC81C1232D20649B
:10270000322E19C036FE06C08AE0989E200D112494
:10271000922E11C0EAE02E9E200D1124222EF32DC0
:10272000F0623F2E08C08C3621F4832D8068382E4D
:1027300002C0883641F4F70193FD859193FF8191A2
:102740007F018111B3CF982F9F7D9554933028F44A
:102750000C5F1F4F9FE399830DC0833631F08337A1
:1027600071F0833509F059C021C0F8018081898357
:102770000E5F1F4F88248394912C530113C02801AE
:10278000F2E04F0E511CF801A080B18036FE03C06C
:10279000692D70E002C06FEF7FEFC5010E94141534
:1027A0004C018201F32DFF773F2E16C0280122E055
:1027B000420E511CF801A080B18036FE03C0692D85
:1027C00070E002C06FEF7FEFC5010E9409154C0158
:1027D000F32DF0683F2E820133FC1BC0822D90E068
:1027E00088169906B0F4B60180E290E00E941F15A9
:1027F0002A94F4CFF50137FC859137FE81915F0172
:10280000B60190E00E941F1521102A9421E0821A3F
:1028100091088114910471F7E8C0843611F089366B
:1028200041F5F80137FE07C0608171818281938193
:102830000C5F1F4F08C060817181072E000C880B50
:10284000990B0E5F1F4FF32DFF763F2E97FF09C0A8
:1028500090958095709561957F4F8F4F9F4FF06851
:102860003F2E2AE030E0A3010E945B15882E8618D7
:1028700045C0853731F4232D2F7EB22E2AE030E07B
:1028800025C0932D997FB92E8F36C1F018F4883565
:1028900079F0B5C0803719F0883721F0B0C0E92F42
:1028A000E061BE2EB4FE0DC0FB2DF460BF2E09C04A
:1028B00034FE0AC0292F2660B22E06C028E030E080
:1028C00005C020E130E002C020E132E0F801B7FEAF
:1028D00007C060817181828193810C5F1F4F06C0A8
:1028E0006081718180E090E00E5F1F4FA3010E9424
:1028F0005B15882E8618FB2DFF773F2E36FE0DC008
:10290000232D2E7FA22E891458F434FE0BC032FCE6
:1029100009C0832D8E7EA82E05C0B82CA32C03C021
:10292000B82C01C0B92CA4FE0FC0FE01E80DF11DAA
:102930008081803321F49A2D997EA92E09C0A2FEB0
:1029400006C0B394B39404C08A2D867809F0B3947A
:10295000A3FC11C0A0FE06C0B21488F4280C922C6F
:102960009B180EC0B21460F4B60180E290E00E94A1
:102970001F15B394F7CFB21418F42B1802C0982C7B
:10298000212CA4FE10C0B60180E390E00E941F1528
:10299000A2FE17C0A1FC03C088E790E002C088E552
:1029A00090E0B6010CC08A2D867859F0A1FE02C0D5
:1029B0008BE201C080E2A7FC8DE2B60190E00E94AC
:1029C0001F15891438F4B60180E390E00E941F15AA
:1029D0009A94F7CF8A94F301E80DF11D8081B60136
:1029E00090E00E941F158110F5CF222009F442CEFD
:1029F000B60180E290E00E941F152A94F6CFF601FE
:102A00008681978102C08FEF9FEF2B96E2E10C94B5
:102A1000E815FC010590615070400110D8F78095D1
:102A200090958E0F9F1F0895FC016150704001909A
:102A30000110D8F7809590958E0F9F1F08950F93E2
:102A40001F93CF93DF93FB01238121FD03C08FEF01
:102A50009FEF2CC022FF16C046815781248135810B
:102A60004217530744F4A081B1819D012F5F3F4F6E
:102A7000318320838C93268137812F5F3F4F3783AB
:102A8000268314C08B01EC01FB010084F185E02D4D
:102A90000995892BE1F6D80116968D919C9117978F
:102AA000019617969C938E931697CE01DF91CF9146
:102AB0001F910F910895FA01AA27283051F1203172
:102AC00081F1E8946F936E7F6E5F7F4F8F4F9F4FC2
:102AD000AF4FB1E03ED0B4E03CD0670F781F891F04
:102AE0009A1FA11D680F791F8A1F911DA11D6A0FD2
:102AF000711D811D911DA11D20D009F468943F9185
:102B00002AE0269F11243019305D3193DEF6CF0183
:102B10000895462F4770405D4193B3E00FD0C9F749
:102B2000F6CF462F4F70405D4A3318F0495D31FDB6
:102B30004052419302D0A9F7EACFB4E0A695979509
:102B4000879577956795BA95C9F7009761057105DF
:102B500008959B01AC010A2E069457954795379529
:102B60002795BA95C9F7620F731F841F951FA01D83
:102B700008950E940316A59F900DB49F900DA49FE9
:102B8000800D911D11240895B7FF0C94B9150E9472
:102B9000B915821B930B08952F923F924F925F922B
:102BA0006F927F928F929F92AF92BF92CF92DF925D
:102BB000EF92FF920F931F93CF93DF93CDB7DEB7C2
:102BC000CA1BDB0B0FB6F894DEBF0FBECDBF099456
:102BD0002A88398848885F846E847D848C849B84AD
:102BE000AA84B984C884DF80EE80FD800C811B81BB
:102BF000AA81B981CE0FD11D0FB6F894DEBF0FBEEA
:102C0000CDBFED010895A29FB001B39FC001A39F66
:102C1000700D811D1124911DB29F700D811D112415
:082C2000911D0895F894FFCF07
:102C280001000000010001010307070303018F8170
:102C3800C0E000000101030301011018183C3C38F2
:102C48001810010101030707030707070301010122
:102C5800000000000101030301011018183C3C3872
:102C68001810010101030707030707070301010102
:102C7800000000000101030301011018183C3C3852
:102C88001810010101030707040F000000030000EA
:102C98000000A30EDB0E00003F065B4F666D7D074C
:102CA8007F6F010000004C4556454C20555000539D
:102CB8005041434520494D504143542020534542FB
:102CC80041535449414E204E41524C4F43482034C1
:082CD800343334353731340088
:00000001FF
